{
  "_format": "hh-sol-artifact-1",
  "contractName": "DelayClaimInsurance",
  "sourceName": "contracts/DelayClaimInsurance.sol",
  "abi": [
    {
      "inputs": [
        {
          "internalType": "address",
          "name": "_fdcVerifier",
          "type": "address"
        }
      ],
      "stateMutability": "nonpayable",
      "type": "constructor"
    },
    {
      "anonymous": false,
      "inputs": [
        {
          "indexed": true,
          "internalType": "uint256",
          "name": "policyId",
          "type": "uint256"
        },
        {
          "indexed": true,
          "internalType": "address",
          "name": "owner",
          "type": "address"
        },
        {
          "indexed": false,
          "internalType": "bytes32",
          "name": "tripIdHash",
          "type": "bytes32"
        },
        {
          "indexed": false,
          "internalType": "uint64",
          "name": "travelDate",
          "type": "uint64"
        },
        {
          "indexed": false,
          "internalType": "uint256",
          "name": "payoutAmount",
          "type": "uint256"
        },
        {
          "indexed": false,
          "internalType": "uint16",
          "name": "thresholdMinutes",
          "type": "uint16"
        },
        {
          "indexed": false,
          "internalType": "uint64",
          "name": "deadline",
          "type": "uint64"
        }
      ],
      "name": "PolicyCreated",
      "type": "event"
    },
    {
      "anonymous": false,
      "inputs": [
        {
          "indexed": true,
          "internalType": "uint256",
          "name": "policyId",
          "type": "uint256"
        }
      ],
      "name": "PolicyExpired",
      "type": "event"
    },
    {
      "anonymous": false,
      "inputs": [
        {
          "indexed": true,
          "internalType": "uint256",
          "name": "policyId",
          "type": "uint256"
        },
        {
          "indexed": false,
          "internalType": "enum DelayClaimInsurance.PolicyStatus",
          "name": "outcome",
          "type": "uint8"
        },
        {
          "indexed": false,
          "internalType": "uint16",
          "name": "delayMinutes",
          "type": "uint16"
        },
        {
          "indexed": false,
          "internalType": "bool",
          "name": "cancelled",
          "type": "bool"
        }
      ],
      "name": "PolicyResolved",
      "type": "event"
    },
    {
      "anonymous": false,
      "inputs": [
        {
          "indexed": true,
          "internalType": "address",
          "name": "funder",
          "type": "address"
        },
        {
          "indexed": false,
          "internalType": "uint256",
          "name": "amount",
          "type": "uint256"
        }
      ],
      "name": "PoolFunded",
      "type": "event"
    },
    {
      "anonymous": false,
      "inputs": [
        {
          "indexed": true,
          "internalType": "address",
          "name": "owner",
          "type": "address"
        },
        {
          "indexed": false,
          "internalType": "uint256",
          "name": "amount",
          "type": "uint256"
        }
      ],
      "name": "PoolWithdrawn",
      "type": "event"
    },
    {
      "inputs": [
        {
          "internalType": "enum DelayClaimInsurance.TripType",
          "name": "tripType",
          "type": "uint8"
        },
        {
          "internalType": "string",
          "name": "tripIdString",
          "type": "string"
        },
        {
          "internalType": "uint64",
          "name": "travelDate",
          "type": "uint64"
        },
        {
          "internalType": "uint16",
          "name": "thresholdMinutes",
          "type": "uint16"
        },
        {
          "internalType": "uint256",
          "name": "payoutAmount",
          "type": "uint256"
        },
        {
          "internalType": "uint64",
          "name": "deadline",
          "type": "uint64"
        }
      ],
      "name": "createPolicy",
      "outputs": [
        {
          "internalType": "uint256",
          "name": "policyId",
          "type": "uint256"
        }
      ],
      "stateMutability": "payable",
      "type": "function"
    },
    {
      "inputs": [
        {
          "internalType": "uint256",
          "name": "policyId",
          "type": "uint256"
        }
      ],
      "name": "expirePolicy",
      "outputs": [],
      "stateMutability": "nonpayable",
      "type": "function"
    },
    {
      "inputs": [],
      "name": "fdcVerifier",
      "outputs": [
        {
          "internalType": "contract IFDCVerifier",
          "name": "",
          "type": "address"
        }
      ],
      "stateMutability": "view",
      "type": "function"
    },
    {
      "inputs": [],
      "name": "fundPool",
      "outputs": [],
      "stateMutability": "payable",
      "type": "function"
    },
    {
      "inputs": [
        {
          "internalType": "uint256",
          "name": "policyId",
          "type": "uint256"
        }
      ],
      "name": "getPolicy",
      "outputs": [
        {
          "components": [
            {
              "internalType": "address",
              "name": "owner",
              "type": "address"
            },
            {
              "internalType": "enum DelayClaimInsurance.TripType",
              "name": "tripType",
              "type": "uint8"
            },
            {
              "internalType": "bytes32",
              "name": "tripIdHash",
              "type": "bytes32"
            },
            {
              "internalType": "uint64",
              "name": "travelDate",
              "type": "uint64"
            },
            {
              "internalType": "uint16",
              "name": "thresholdMinutes",
              "type": "uint16"
            },
            {
              "internalType": "uint256",
              "name": "payoutAmount",
              "type": "uint256"
            },
            {
              "internalType": "uint64",
              "name": "deadline",
              "type": "uint64"
            },
            {
              "internalType": "enum DelayClaimInsurance.PolicyStatus",
              "name": "status",
              "type": "uint8"
            },
            {
              "internalType": "uint64",
              "name": "createdAt",
              "type": "uint64"
            }
          ],
          "internalType": "struct DelayClaimInsurance.Policy",
          "name": "",
          "type": "tuple"
        }
      ],
      "stateMutability": "view",
      "type": "function"
    },
    {
      "inputs": [
        {
          "internalType": "address",
          "name": "user",
          "type": "address"
        }
      ],
      "name": "getUserPolicies",
      "outputs": [
        {
          "internalType": "uint256[]",
          "name": "",
          "type": "uint256[]"
        }
      ],
      "stateMutability": "view",
      "type": "function"
    },
    {
      "inputs": [],
      "name": "owner",
      "outputs": [
        {
          "internalType": "address",
          "name": "",
          "type": "address"
        }
      ],
      "stateMutability": "view",
      "type": "function"
    },
    {
      "inputs": [
        {
          "internalType": "uint256",
          "name": "",
          "type": "uint256"
        }
      ],
      "name": "policies",
      "outputs": [
        {
          "internalType": "address",
          "name": "owner",
          "type": "address"
        },
        {
          "internalType": "enum DelayClaimInsurance.TripType",
          "name": "tripType",
          "type": "uint8"
        },
        {
          "internalType": "bytes32",
          "name": "tripIdHash",
          "type": "bytes32"
        },
        {
          "internalType": "uint64",
          "name": "travelDate",
          "type": "uint64"
        },
        {
          "internalType": "uint16",
          "name": "thresholdMinutes",
          "type": "uint16"
        },
        {
          "internalType": "uint256",
          "name": "payoutAmount",
          "type": "uint256"
        },
        {
          "internalType": "uint64",
          "name": "deadline",
          "type": "uint64"
        },
        {
          "internalType": "enum DelayClaimInsurance.PolicyStatus",
          "name": "status",
          "type": "uint8"
        },
        {
          "internalType": "uint64",
          "name": "createdAt",
          "type": "uint64"
        }
      ],
      "stateMutability": "view",
      "type": "function"
    },
    {
      "inputs": [],
      "name": "policyCounter",
      "outputs": [
        {
          "internalType": "uint256",
          "name": "",
          "type": "uint256"
        }
      ],
      "stateMutability": "view",
      "type": "function"
    },
    {
      "inputs": [],
      "name": "poolBalance",
      "outputs": [
        {
          "internalType": "uint256",
          "name": "",
          "type": "uint256"
        }
      ],
      "stateMutability": "view",
      "type": "function"
    },
    {
      "inputs": [
        {
          "internalType": "address",
          "name": "_fdcVerifier",
          "type": "address"
        }
      ],
      "name": "setFDCVerifier",
      "outputs": [],
      "stateMutability": "nonpayable",
      "type": "function"
    },
    {
      "inputs": [
        {
          "internalType": "uint256",
          "name": "policyId",
          "type": "uint256"
        },
        {
          "components": [
            {
              "internalType": "bytes32",
              "name": "tripIdHash",
              "type": "bytes32"
            },
            {
              "internalType": "uint64",
              "name": "travelDate",
              "type": "uint64"
            },
            {
              "internalType": "bool",
              "name": "cancelled",
              "type": "bool"
            },
            {
              "internalType": "uint16",
              "name": "delayMinutes",
              "type": "uint16"
            },
            {
              "internalType": "uint64",
              "name": "observedAt",
              "type": "uint64"
            }
          ],
          "internalType": "struct DelayClaimInsurance.TripStatus",
          "name": "tripStatus",
          "type": "tuple"
        },
        {
          "components": [
            {
              "internalType": "bytes32[]",
              "name": "merkleProof",
              "type": "bytes32[]"
            },
            {
              "internalType": "bytes32",
              "name": "attestationId",
              "type": "bytes32"
            }
          ],
          "internalType": "struct DelayClaimInsurance.FDCProof",
          "name": "proof",
          "type": "tuple"
        }
      ],
      "name": "submitTripProof",
      "outputs": [],
      "stateMutability": "nonpayable",
      "type": "function"
    },
    {
      "inputs": [
        {
          "internalType": "bytes32",
          "name": "",
          "type": "bytes32"
        }
      ],
      "name": "usedAttestations",
      "outputs": [
        {
          "internalType": "bool",
          "name": "",
          "type": "bool"
        }
      ],
      "stateMutability": "view",
      "type": "function"
    },
    {
      "inputs": [
        {
          "internalType": "address",
          "name": "",
          "type": "address"
        },
        {
          "internalType": "uint256",
          "name": "",
          "type": "uint256"
        }
      ],
      "name": "userPolicies",
      "outputs": [
        {
          "internalType": "uint256",
          "name": "",
          "type": "uint256"
        }
      ],
      "stateMutability": "view",
      "type": "function"
    },
    {
      "inputs": [
        {
          "internalType": "uint256",
          "name": "amount",
          "type": "uint256"
        }
      ],
      "name": "withdrawPool",
      "outputs": [],
      "stateMutability": "nonpayable",
      "type": "function"
    },
    {
      "stateMutability": "payable",
      "type": "receive"
    }
  ],
  "bytecode": "0x608060405234801561001057600080fd5b50604051611b77380380611b7783398101604081905261002f91610062565b60008054336001600160a01b031991821617909155600380549091166001600160a01b0392909216919091179055610092565b60006020828403121561007457600080fd5b81516001600160a01b038116811461008b57600080fd5b9392505050565b611ad6806100a16000396000f3fe6080604052600436106100ec5760003560e01c80635a5535721161008a578063d3e8948311610059578063d3e89483146102ed578063d52c1bea1461038f578063e0e7e6b8146103a5578063ed09ec31146103c557600080fd5b80635a5535721461025757806370f37d27146102975780638da5cb5b1461029f57806396365d44146102d757600080fd5b80633b13c325116100c65780633b13c325146101c95780633d36adc5146101e9578063486b576e146102175780634c034ea91461023757600080fd5b806319ac4614146101445780632b07fce31461017a5780633037e4cd146101a757600080fd5b3661013f5734600160008282546101039190611523565b909155505060405134815233907f32173d8e51cec3a6fe484b7a1c3febe760cdf96e03d4cca36a43563a4333e8389060200160405180910390a2005b600080fd5b34801561015057600080fd5b5061016461015f366004611552565b6103d8565b6040516101719190611574565b60405180910390f35b34801561018657600080fd5b5061019a6101953660046115b8565b610444565b604051610171919061160b565b3480156101b357600080fd5b506101c76101c23660046115b8565b610585565b005b3480156101d557600080fd5b506101c76101e4366004611552565b6106ed565b3480156101f557600080fd5b506102096102043660046116b4565b610755565b604051908152602001610171565b34801561022357600080fd5b506101c76102323660046116de565b610786565b34801561024357600080fd5b506101c76102523660046115b8565b610cc9565b34801561026357600080fd5b506102876102723660046115b8565b60066020526000908152604090205460ff1681565b6040519015158152602001610171565b6101c7610eba565b3480156102ab57600080fd5b506000546102bf906001600160a01b031681565b6040516001600160a01b039091168152602001610171565b3480156102e357600080fd5b5061020960015481565b3480156102f957600080fd5b5061037a6103083660046115b8565b6004602081905260009182526040909120805460018201546002830154600384015493909401546001600160a01b0383169460ff600160a01b90940484169492936001600160401b038083169461ffff600160401b9485900416949093818316939082041691600160481b9091041689565b60405161017199989796959493929190611747565b34801561039b57600080fd5b5061020960025481565b3480156103b157600080fd5b506003546102bf906001600160a01b031681565b6102096103d33660046117e1565b610f4a565b6001600160a01b03811660009081526005602090815260409182902080548351818402810184019094528084526060939283018282801561043857602002820191906000526020600020905b815481526020019060010190808311610424575b50505050509050919050565b6040805161012081018252600080825260208201819052918101829052606081018290526080810182905260a0810182905260c0810182905260e081018290526101008101919091526000828152600460209081526040918290208251610120810190935280546001600160a01b03811684529091830190600160a01b900460ff1660018111156104d7576104d76115d1565b60018111156104e8576104e86115d1565b81526001820154602082015260028201546001600160401b038082166040840152600160401b9182900461ffff1660608401526003808501546080850152600485015491821660a085015260c09093019291900460ff169081111561054f5761054f6115d1565b6003811115610560576105606115d1565b815260049190910154600160481b90046001600160401b031660209091015292915050565b8060008111801561059857506002548111155b6105e15760405162461bcd60e51b8152602060048201526015602482015274141bdb1a58de48191bd95cc81b9bdd08195e1a5cdd605a1b60448201526064015b60405180910390fd5b6000828152600460205260408120906004820154600160401b900460ff166003811115610610576106106115d1565b146106515760405162461bcd60e51b8152602060048201526011602482015270506f6c696379206e6f742061637469766560781b60448201526064016105d8565b60048101546001600160401b031642116106a35760405162461bcd60e51b8152602060048201526013602482015272111958591b1a5b99481b9bdd081c185cdcd959606a1b60448201526064016105d8565b60048101805460ff60401b19166803000000000000000017905560405183907fb22aa541487fc93d989bb5b17d1e3a967f649c4979cfd658c0849e070ae0dca090600090a2505050565b6000546001600160a01b031633146107335760405162461bcd60e51b81526020600482015260096024820152682737ba1037bbb732b960b91b60448201526064016105d8565b600380546001600160a01b0319166001600160a01b0392909216919091179055565b6005602052816000526040600020818154811061077157600080fd5b90600052602060002001600091509150505481565b8260008111801561079957506002548111155b6107dd5760405162461bcd60e51b8152602060048201526015602482015274141bdb1a58de48191bd95cc81b9bdd08195e1a5cdd605a1b60448201526064016105d8565b6000848152600460205260408120906004820154600160401b900460ff16600381111561080c5761080c6115d1565b1461084d5760405162461bcd60e51b8152602060048201526011602482015270506f6c696379206e6f742061637469766560781b60448201526064016105d8565b60048101546001600160401b03164211156108a25760405162461bcd60e51b815260206004820152601560248201527410db185a5b48191958591b1a5b99481c185cdcd959605a1b60448201526064016105d8565b60028101546001600160401b03164210156108ff5760405162461bcd60e51b815260206004820152601760248201527f54726176656c2064617465206e6f74207265616368656400000000000000000060448201526064016105d8565b60018101548435146109465760405162461bcd60e51b815260206004820152601060248201526f0a8e4d2e040928840dad2e6dac2e8c6d60831b60448201526064016105d8565b60028101546001600160401b031661096460408601602087016118a5565b6001600160401b0316146109b15760405162461bcd60e51b81526020600482015260146024820152730a8e4c2eccad840c8c2e8ca40dad2e6dac2e8c6d60631b60448201526064016105d8565b60208084013560009081526006909152604090205460ff1615610a165760405162461bcd60e51b815260206004820152601860248201527f4174746573746174696f6e20616c72656164792075736564000000000000000060448201526064016105d8565b610a2084846113be565b610a605760405162461bcd60e51b815260206004820152601160248201527024b73b30b634b21023222190383937b7b360791b60448201526064016105d8565b602080840135600090815260069091526040808220805460ff19166001179055610a9090606087019087016118d1565b80610abd57506002820154600160401b900461ffff16610ab660808701606088016118ee565b61ffff1610155b90508015610c4b5760048201805460ff60401b1916600160401b17905560038201546001541015610b305760405162461bcd60e51b815260206004820152601960248201527f496e73756666696369656e7420706f6f6c2062616c616e63650000000000000060448201526064016105d8565b816003015460016000828254610b469190611909565b9091555050815460038301546040516000926001600160a01b031691908381818185875af1925050503d8060008114610b9b576040519150601f19603f3d011682016040523d82523d6000602084013e610ba0565b606091505b5050905080610bea5760405162461bcd60e51b815260206004820152601660248201527514185e5bdd5d081d1c985b9cd9995c8819985a5b195960521b60448201526064016105d8565b867f070dbb077a33395b218a14306e43cebc1568d5a7bfb73584c3adc3368c4002066001610c1e60808a0160608b016118ee565b610c2e60608b0160408c016118d1565b604051610c3d9392919061191c565b60405180910390a250610cc1565b60048201805460ff60401b191668020000000000000000179055857f070dbb077a33395b218a14306e43cebc1568d5a7bfb73584c3adc3368c4002066002610c996080890160608a016118ee565b610ca960608a0160408b016118d1565b604051610cb89392919061191c565b60405180910390a25b505050505050565b6000546001600160a01b03163314610d0f5760405162461bcd60e51b81526020600482015260096024820152682737ba1037bbb732b960b91b60448201526064016105d8565b60006064600154605a610d229190611944565b610d2c919061195b565b905080821115610d7e5760405162461bcd60e51b815260206004820152601d60248201527f457863656564732073616665207769746864726177616c206c696d697400000060448201526064016105d8565b47821115610dc55760405162461bcd60e51b8152602060048201526014602482015273496e73756666696369656e742062616c616e636560601b60448201526064016105d8565b8160016000828254610dd79190611909565b9091555050600080546040516001600160a01b039091169084908381818185875af1925050503d8060008114610e29576040519150601f19603f3d011682016040523d82523d6000602084013e610e2e565b606091505b5050905080610e735760405162461bcd60e51b815260206004820152601160248201527015da5d1a191c985dd85b0819985a5b1959607a1b60448201526064016105d8565b6000546040518481526001600160a01b03909116907f6f07e6169c1653554eb707b6f6cd8f7ccf9cc29e54a0d8a71d9d5867d2057ac29060200160405180910390a2505050565b60003411610efc5760405162461bcd60e51b815260206004820152600f60248201526e4d7573742073656e642076616c756560881b60448201526064016105d8565b3460016000828254610f0e9190611523565b909155505060405134815233907f32173d8e51cec3a6fe484b7a1c3febe760cdf96e03d4cca36a43563a4333e8389060200160405180910390a2565b600085610f8c5760405162461bcd60e51b815260206004820152601060248201526f151c9a5c081251081c995c5d5a5c995960821b60448201526064016105d8565b42856001600160401b031611610fe45760405162461bcd60e51b815260206004820152601a60248201527f54726176656c2064617465206d7573742062652066757475726500000000000060448201526064016105d8565b846001600160401b0316826001600160401b0316116110455760405162461bcd60e51b815260206004820152601d60248201527f446561646c696e65206d7573742062652061667465722074726176656c00000060448201526064016105d8565b60008461ffff16116110995760405162461bcd60e51b815260206004820152601a60248201527f5468726573686f6c64206d75737420626520706f73697469766500000000000060448201526064016105d8565b600083116110e95760405162461bcd60e51b815260206004820152601760248201527f5061796f7574206d75737420626520706f73697469766500000000000000000060448201526064016105d8565b60006110f6600a8561195b565b90508034101561113f5760405162461bcd60e51b8152602060048201526014602482015273496e73756666696369656e74207072656d69756d60601b60448201526064016105d8565b6002805490600061114f8361197d565b919050555060025491506000888860405161116b929190611996565b6040805191829003822061012083019091523382529150602081018b6001811115611198576111986115d1565b8152602081018390526001600160401b03808a16604083015261ffff8916606083015260808201889052861660a082015260c001600081526001600160401b03421660209182015260008581526004825260409020825181546001600160a01b039091166001600160a01b031982168117835592840151919283916001600160a81b03191617600160a01b836001811115611235576112356115d1565b0217905550604082015160018201556060820151600282018054608085015161ffff16600160401b90810269ffffffffffffffffffff199092166001600160401b03948516179190911790915560a084015160038085019190915560c08501516004850180549190941667ffffffffffffffff1982168117855560e0870151949368ffffffffffffffffff19909216179184908111156112d7576112d76115d1565b02179055506101009190910151600490910180546001600160401b03909216600160481b0270ffffffffffffffff000000000000000000199092169190911790553360009081526005602090815260408220805460018181018355918452918320909101859055805434929061134e908490611523565b9091555050604080518281526001600160401b03898116602083015281830188905261ffff89166060830152861660808201529051339185917fce07786785ef7aac7465df393c63a66cf0896d55a005cdd42b0f7d1157e2bf8a9181900360a00190a35050979650505050505050565b6003546000906001600160a01b03166113f6576020820135158015906113ef575060006113eb83806119a6565b9050115b9050611507565b6000833561140a60408601602087016118a5565b61141a60608701604088016118d1565b61142a60808801606089016118ee565b61143a60a0890160808a016118a5565b6040805160208101969096526001600160401b0394851690860152911515606085015261ffff1660808401521660a082015260c00160408051601f198184030181529190526003549091506001600160a01b031663ed0556fb60208501356114a286806119a6565b856040518563ffffffff1660e01b81526004016114c294939291906119f6565b602060405180830381865afa1580156114df573d6000803e3d6000fd5b505050506040513d601f19601f820116820180604052508101906115039190611a83565b9150505b92915050565b634e487b7160e01b600052601160045260246000fd5b808201808211156115075761150761150d565b80356001600160a01b038116811461154d57600080fd5b919050565b60006020828403121561156457600080fd5b61156d82611536565b9392505050565b6020808252825182820181905260009190848201906040850190845b818110156115ac57835183529284019291840191600101611590565b50909695505050505050565b6000602082840312156115ca57600080fd5b5035919050565b634e487b7160e01b600052602160045260246000fd5b600281106115f7576115f76115d1565b9052565b600481106115f7576115f76115d1565b81516001600160a01b03168152602080830151610120830191611630908401826115e7565b50604083015160408301526001600160401b0360608401511660608301526080830151611663608084018261ffff169052565b5060a083015160a083015260c083015161168860c08401826001600160401b03169052565b5060e083015161169b60e08401826115fb565b50610100928301516001600160401b0316919092015290565b600080604083850312156116c757600080fd5b6116d083611536565b946020939093013593505050565b600080600083850360e08112156116f457600080fd5b8435935060a0601f198201121561170a57600080fd5b5060208401915060c08401356001600160401b0381111561172a57600080fd5b84016040818703121561173c57600080fd5b809150509250925092565b6001600160a01b038a1681526101208101611765602083018b6115e7565b8860408301526001600160401b03808916606084015261ffff881660808401528660a084015280861660c08401526117a060e08401866115fb565b808416610100840152509a9950505050505050505050565b80356001600160401b038116811461154d57600080fd5b803561ffff8116811461154d57600080fd5b600080600080600080600060c0888a0312156117fc57600080fd5b87356002811061180b57600080fd5b965060208801356001600160401b038082111561182757600080fd5b818a0191508a601f83011261183b57600080fd5b81358181111561184a57600080fd5b8b602082850101111561185c57600080fd5b602083019850809750505050611874604089016117b8565b9350611882606089016117cf565b92506080880135915061189760a089016117b8565b905092959891949750929550565b6000602082840312156118b757600080fd5b61156d826117b8565b80151581146118ce57600080fd5b50565b6000602082840312156118e357600080fd5b813561156d816118c0565b60006020828403121561190057600080fd5b61156d826117cf565b818103818111156115075761150761150d565b6060810161192a82866115fb565b61ffff841660208301528215156040830152949350505050565b80820281158282048414176115075761150761150d565b60008261197857634e487b7160e01b600052601260045260246000fd5b500490565b60006001820161198f5761198f61150d565b5060010190565b8183823760009101908152919050565b6000808335601e198436030181126119bd57600080fd5b8301803591506001600160401b038211156119d757600080fd5b6020019150600581901b36038213156119ef57600080fd5b9250929050565b8481526000602060608184015284606084015260018060fb1b03851115611a1c57600080fd5b8460051b8087608086013780840190506080848203016040850152845180608083015260005b81811015611a5e5786810184015183820160a001528301611a42565b50600060a0828401015260a0601f19601f830116830101935050505095945050505050565b600060208284031215611a9557600080fd5b815161156d816118c056fea2646970667358221220b47f22493679fb1a23fefe9169f3f2a9e9e331a9af28c166af581f4f9030553764736f6c63430008140033",
  "linkReferences": {},
  "deployedLinkReferences": {}
}