{"contracts/MockFDCVerifier.sol":{"MockFDCVerifier":{"abi":[{"inputs":[],"stateMutability":"nonpayable","type":"constructor"},{"anonymous":false,"inputs":[{"indexed":true,"internalType":"bytes32","name":"attestationId","type":"bytes32"}],"name":"AttestationRegistered","type":"event"},{"anonymous":false,"inputs":[{"indexed":true,"internalType":"uint256","name":"roundId","type":"uint256"},{"indexed":false,"internalType":"bytes32","name":"root","type":"bytes32"}],"name":"MerkleRootSet","type":"event"},{"inputs":[{"internalType":"bytes32","name":"attestationId","type":"bytes32"}],"name":"attestationExists","outputs":[{"internalType":"bool","name":"exists","type":"bool"}],"stateMutability":"view","type":"function"},{"inputs":[{"internalType":"bytes32[]","name":"attestationIds","type":"bytes32[]"}],"name":"batchRegisterAttestations","outputs":[],"stateMutability":"nonpayable","type":"function"},{"inputs":[],"name":"currentRound","outputs":[{"internalType":"uint256","name":"","type":"uint256"}],"stateMutability":"view","type":"function"},{"inputs":[{"internalType":"uint256","name":"roundId","type":"uint256"}],"name":"getMerkleRoot","outputs":[{"internalType":"bytes32","name":"root","type":"bytes32"}],"stateMutability":"view","type":"function"},{"inputs":[{"internalType":"uint256","name":"","type":"uint256"}],"name":"merkleRoots","outputs":[{"internalType":"bytes32","name":"","type":"bytes32"}],"stateMutability":"view","type":"function"},{"inputs":[],"name":"owner","outputs":[{"internalType":"address","name":"","type":"address"}],"stateMutability":"view","type":"function"},{"inputs":[{"internalType":"bytes32","name":"attestationId","type":"bytes32"}],"name":"registerAttestation","outputs":[],"stateMutability":"nonpayable","type":"function"},{"inputs":[{"internalType":"uint256","name":"roundId","type":"uint256"},{"internalType":"bytes32","name":"root","type":"bytes32"}],"name":"setMerkleRoot","outputs":[],"stateMutability":"nonpayable","type":"function"},{"inputs":[{"internalType":"bytes32","name":"","type":"bytes32"}],"name":"validAttestations","outputs":[{"internalType":"bool","name":"","type":"bool"}],"stateMutability":"view","type":"function"},{"inputs":[{"internalType":"bytes32","name":"attestationId","type":"bytes32"},{"internalType":"bytes32[]","name":"merkleProof","type":"bytes32[]"},{"internalType":"bytes","name":"","type":"bytes"}],"name":"verifyAttestation","outputs":[{"internalType":"bool","name":"valid","type":"bool"}],"stateMutability":"view","type":"function"}],"evm":{"bytecode":{"linkReferences":{},"object":"608060405234801561001057600080fd5b50600080546001600160a01b031916331790556001600355610616806100376000396000f3fe608060405234801561001057600080fd5b506004361061009e5760003560e01c80638da5cb5b116100665780638da5cb5b146101275780639fc0982f14610152578063e41fd85814610185578063eceaf39014610198578063ed0556fb146101bb57600080fd5b80630aab8ba5146100a357806318712c21146100d65780635a2d7f50146100eb57806371c5ecb1146100fe5780638a19c8bc1461011e575b600080fd5b6100c36100b13660046103bc565b60009081526002602052604090205490565b6040519081526020015b60405180910390f35b6100e96100e43660046103d5565b6101ce565b005b6100e96100f93660046103bc565b610252565b6100c361010c3660046103bc565b60026020526000908152604090205481565b6100c360035481565b60005461013a906001600160a01b031681565b6040516001600160a01b0390911681526020016100cd565b6101756101603660046103bc565b60009081526001602052604090205460ff1690565b60405190151581526020016100cd565b6100e9610193366004610443565b6102c2565b6101756101a63660046103bc565b60016020526000908152604090205460ff1681565b6101756101c936600461049b565b610396565b6000546001600160a01b031633146102015760405162461bcd60e51b81526004016101f890610580565b60405180910390fd5b600082815260026020526040908190208290555182907fb04b7d6145a7588fdcf339a22877d5965f861c171204fc37688058c5f6c06d3b906102469084815260200190565b60405180910390a25050565b6000546001600160a01b0316331461027c5760405162461bcd60e51b81526004016101f890610580565b6000818152600160208190526040808320805460ff19169092179091555182917ffe10586889e06530420fe4a0d86aa4f7afc3c9dc84b0c77b731a9615496ef18a91a250565b6000546001600160a01b031633146102ec5760405162461bcd60e51b81526004016101f890610580565b60005b8181101561039157600180600085858581811061030e5761030e6105a3565b90506020020135815260200190815260200160002060006101000a81548160ff02191690831515021790555082828281811061034c5761034c6105a3565b905060200201357ffe10586889e06530420fe4a0d86aa4f7afc3c9dc84b0c77b731a9615496ef18a60405160405180910390a280610389816105b9565b9150506102ef565b505050565b60008481526001602052604081205460ff1680156103b357508215155b95945050505050565b6000602082840312156103ce57600080fd5b5035919050565b600080604083850312156103e857600080fd5b50508035926020909101359150565b60008083601f84011261040957600080fd5b50813567ffffffffffffffff81111561042157600080fd5b6020830191508360208260051b850101111561043c57600080fd5b9250929050565b6000806020838503121561045657600080fd5b823567ffffffffffffffff81111561046d57600080fd5b610479858286016103f7565b90969095509350505050565b634e487b7160e01b600052604160045260246000fd5b600080600080606085870312156104b157600080fd5b84359350602085013567ffffffffffffffff808211156104d057600080fd5b6104dc888389016103f7565b909550935060408701359150808211156104f557600080fd5b818701915087601f83011261050957600080fd5b81358181111561051b5761051b610485565b604051601f8201601f19908116603f0116810190838211818310171561054357610543610485565b816040528281528a602084870101111561055c57600080fd5b82602086016020830137600060208483010152809550505050505092959194509250565b6020808252600990820152682737ba1037bbb732b960b91b604082015260600190565b634e487b7160e01b600052603260045260246000fd5b6000600182016105d957634e487b7160e01b600052601160045260246000fd5b506001019056fea26469706673582212203eaa966019d90e9dd970f858dfd787e73e74695256dac179d84c5e12ec6ffee764736f6c63430008140033","opcodes":"PUSH1 0x80 PUSH1 0x40 MSTORE CALLVALUE DUP1 ISZERO PUSH2 0x10 JUMPI PUSH1 0x0 DUP1 REVERT JUMPDEST POP PUSH1 0x0 DUP1 SLOAD PUSH1 0x1 PUSH1 0x1 PUSH1 0xA0 SHL SUB NOT AND CALLER OR SWAP1 SSTORE PUSH1 0x1 PUSH1 0x3 SSTORE PUSH2 0x616 DUP1 PUSH2 0x37 PUSH1 0x0 CODECOPY PUSH1 0x0 RETURN INVALID PUSH1 0x80 PUSH1 0x40 MSTORE CALLVALUE DUP1 ISZERO PUSH2 0x10 JUMPI PUSH1 0x0 DUP1 REVERT JUMPDEST POP PUSH1 0x4 CALLDATASIZE LT PUSH2 0x9E JUMPI PUSH1 0x0 CALLDATALOAD PUSH1 0xE0 SHR DUP1 PUSH4 0x8DA5CB5B GT PUSH2 0x66 JUMPI DUP1 PUSH4 0x8DA5CB5B EQ PUSH2 0x127 JUMPI DUP1 PUSH4 0x9FC0982F EQ PUSH2 0x152 JUMPI DUP1 PUSH4 0xE41FD858 EQ PUSH2 0x185 JUMPI DUP1 PUSH4 0xECEAF390 EQ PUSH2 0x198 JUMPI DUP1 PUSH4 0xED0556FB EQ PUSH2 0x1BB JUMPI PUSH1 0x0 DUP1 REVERT JUMPDEST DUP1 PUSH4 0xAAB8BA5 EQ PUSH2 0xA3 JUMPI DUP1 PUSH4 0x18712C21 EQ PUSH2 0xD6 JUMPI DUP1 PUSH4 0x5A2D7F50 EQ PUSH2 0xEB JUMPI DUP1 PUSH4 0x71C5ECB1 EQ PUSH2 0xFE JUMPI DUP1 PUSH4 0x8A19C8BC EQ PUSH2 0x11E JUMPI JUMPDEST PUSH1 0x0 DUP1 REVERT JUMPDEST PUSH2 0xC3 PUSH2 0xB1 CALLDATASIZE PUSH1 0x4 PUSH2 0x3BC JUMP JUMPDEST PUSH1 0x0 SWAP1 DUP2 MSTORE PUSH1 0x2 PUSH1 0x20 MSTORE PUSH1 0x40 SWAP1 KECCAK256 SLOAD SWAP1 JUMP JUMPDEST PUSH1 0x40 MLOAD SWAP1 DUP2 MSTORE PUSH1 0x20 ADD JUMPDEST PUSH1 0x40 MLOAD DUP1 SWAP2 SUB SWAP1 RETURN JUMPDEST PUSH2 0xE9 PUSH2 0xE4 CALLDATASIZE PUSH1 0x4 PUSH2 0x3D5 JUMP JUMPDEST PUSH2 0x1CE JUMP JUMPDEST STOP JUMPDEST PUSH2 0xE9 PUSH2 0xF9 CALLDATASIZE PUSH1 0x4 PUSH2 0x3BC JUMP JUMPDEST PUSH2 0x252 JUMP JUMPDEST PUSH2 0xC3 PUSH2 0x10C CALLDATASIZE PUSH1 0x4 PUSH2 0x3BC JUMP JUMPDEST PUSH1 0x2 PUSH1 0x20 MSTORE PUSH1 0x0 SWAP1 DUP2 MSTORE PUSH1 0x40 SWAP1 KECCAK256 SLOAD DUP2 JUMP JUMPDEST PUSH2 0xC3 PUSH1 0x3 SLOAD DUP2 JUMP JUMPDEST PUSH1 0x0 SLOAD PUSH2 0x13A SWAP1 PUSH1 0x1 PUSH1 0x1 PUSH1 0xA0 SHL SUB AND DUP2 JUMP JUMPDEST PUSH1 0x40 MLOAD PUSH1 0x1 PUSH1 0x1 PUSH1 0xA0 SHL SUB SWAP1 SWAP2 AND DUP2 MSTORE PUSH1 0x20 ADD PUSH2 0xCD JUMP JUMPDEST PUSH2 0x175 PUSH2 0x160 CALLDATASIZE PUSH1 0x4 PUSH2 0x3BC JUMP JUMPDEST PUSH1 0x0 SWAP1 DUP2 MSTORE PUSH1 0x1 PUSH1 0x20 MSTORE PUSH1 0x40 SWAP1 KECCAK256 SLOAD PUSH1 0xFF AND SWAP1 JUMP JUMPDEST PUSH1 0x40 MLOAD SWAP1 ISZERO ISZERO DUP2 MSTORE PUSH1 0x20 ADD PUSH2 0xCD JUMP JUMPDEST PUSH2 0xE9 PUSH2 0x193 CALLDATASIZE PUSH1 0x4 PUSH2 0x443 JUMP JUMPDEST PUSH2 0x2C2 JUMP JUMPDEST PUSH2 0x175 PUSH2 0x1A6 CALLDATASIZE PUSH1 0x4 PUSH2 0x3BC JUMP JUMPDEST PUSH1 0x1 PUSH1 0x20 MSTORE PUSH1 0x0 SWAP1 DUP2 MSTORE PUSH1 0x40 SWAP1 KECCAK256 SLOAD PUSH1 0xFF AND DUP2 JUMP JUMPDEST PUSH2 0x175 PUSH2 0x1C9 CALLDATASIZE PUSH1 0x4 PUSH2 0x49B JUMP JUMPDEST PUSH2 0x396 JUMP JUMPDEST PUSH1 0x0 SLOAD PUSH1 0x1 PUSH1 0x1 PUSH1 0xA0 SHL SUB AND CALLER EQ PUSH2 0x201 JUMPI PUSH1 0x40 MLOAD PUSH3 0x461BCD PUSH1 0xE5 SHL DUP2 MSTORE PUSH1 0x4 ADD PUSH2 0x1F8 SWAP1 PUSH2 0x580 JUMP JUMPDEST PUSH1 0x40 MLOAD DUP1 SWAP2 SUB SWAP1 REVERT JUMPDEST PUSH1 0x0 DUP3 DUP2 MSTORE PUSH1 0x2 PUSH1 0x20 MSTORE PUSH1 0x40 SWAP1 DUP2 SWAP1 KECCAK256 DUP3 SWAP1 SSTORE MLOAD DUP3 SWAP1 PUSH32 0xB04B7D6145A7588FDCF339A22877D5965F861C171204FC37688058C5F6C06D3B SWAP1 PUSH2 0x246 SWAP1 DUP5 DUP2 MSTORE PUSH1 0x20 ADD SWAP1 JUMP JUMPDEST PUSH1 0x40 MLOAD DUP1 SWAP2 SUB SWAP1 LOG2 POP POP JUMP JUMPDEST PUSH1 0x0 SLOAD PUSH1 0x1 PUSH1 0x1 PUSH1 0xA0 SHL SUB AND CALLER EQ PUSH2 0x27C JUMPI PUSH1 0x40 MLOAD PUSH3 0x461BCD PUSH1 0xE5 SHL DUP2 MSTORE PUSH1 0x4 ADD PUSH2 0x1F8 SWAP1 PUSH2 0x580 JUMP JUMPDEST PUSH1 0x0 DUP2 DUP2 MSTORE PUSH1 0x1 PUSH1 0x20 DUP2 SWAP1 MSTORE PUSH1 0x40 DUP1 DUP4 KECCAK256 DUP1 SLOAD PUSH1 0xFF NOT AND SWAP1 SWAP3 OR SWAP1 SWAP2 SSTORE MLOAD DUP3 SWAP2 PUSH32 0xFE10586889E06530420FE4A0D86AA4F7AFC3C9DC84B0C77B731A9615496EF18A SWAP2 LOG2 POP JUMP JUMPDEST PUSH1 0x0 SLOAD PUSH1 0x1 PUSH1 0x1 PUSH1 0xA0 SHL SUB AND CALLER EQ PUSH2 0x2EC JUMPI PUSH1 0x40 MLOAD PUSH3 0x461BCD PUSH1 0xE5 SHL DUP2 MSTORE PUSH1 0x4 ADD PUSH2 0x1F8 SWAP1 PUSH2 0x580 JUMP JUMPDEST PUSH1 0x0 JUMPDEST DUP2 DUP2 LT ISZERO PUSH2 0x391 JUMPI PUSH1 0x1 DUP1 PUSH1 0x0 DUP6 DUP6 DUP6 DUP2 DUP2 LT PUSH2 0x30E JUMPI PUSH2 0x30E PUSH2 0x5A3 JUMP JUMPDEST SWAP1 POP PUSH1 0x20 MUL ADD CALLDATALOAD DUP2 MSTORE PUSH1 0x20 ADD SWAP1 DUP2 MSTORE PUSH1 0x20 ADD PUSH1 0x0 KECCAK256 PUSH1 0x0 PUSH2 0x100 EXP DUP2 SLOAD DUP2 PUSH1 0xFF MUL NOT AND SWAP1 DUP4 ISZERO ISZERO MUL OR SWAP1 SSTORE POP DUP3 DUP3 DUP3 DUP2 DUP2 LT PUSH2 0x34C JUMPI PUSH2 0x34C PUSH2 0x5A3 JUMP JUMPDEST SWAP1 POP PUSH1 0x20 MUL ADD CALLDATALOAD PUSH32 0xFE10586889E06530420FE4A0D86AA4F7AFC3C9DC84B0C77B731A9615496EF18A PUSH1 0x40 MLOAD PUSH1 0x40 MLOAD DUP1 SWAP2 SUB SWAP1 LOG2 DUP1 PUSH2 0x389 DUP2 PUSH2 0x5B9 JUMP JUMPDEST SWAP2 POP POP PUSH2 0x2EF JUMP JUMPDEST POP POP POP JUMP JUMPDEST PUSH1 0x0 DUP5 DUP2 MSTORE PUSH1 0x1 PUSH1 0x20 MSTORE PUSH1 0x40 DUP2 KECCAK256 SLOAD PUSH1 0xFF AND DUP1 ISZERO PUSH2 0x3B3 JUMPI POP DUP3 ISZERO ISZERO JUMPDEST SWAP6 SWAP5 POP POP POP POP POP JUMP JUMPDEST PUSH1 0x0 PUSH1 0x20 DUP3 DUP5 SUB SLT ISZERO PUSH2 0x3CE JUMPI PUSH1 0x0 DUP1 REVERT JUMPDEST POP CALLDATALOAD SWAP2 SWAP1 POP JUMP JUMPDEST PUSH1 0x0 DUP1 PUSH1 0x40 DUP4 DUP6 SUB SLT ISZERO PUSH2 0x3E8 JUMPI PUSH1 0x0 DUP1 REVERT JUMPDEST POP POP DUP1 CALLDATALOAD SWAP3 PUSH1 0x20 SWAP1 SWAP2 ADD CALLDATALOAD SWAP2 POP JUMP JUMPDEST PUSH1 0x0 DUP1 DUP4 PUSH1 0x1F DUP5 ADD SLT PUSH2 0x409 JUMPI PUSH1 0x0 DUP1 REVERT JUMPDEST POP DUP2 CALLDATALOAD PUSH8 0xFFFFFFFFFFFFFFFF DUP2 GT ISZERO PUSH2 0x421 JUMPI PUSH1 0x0 DUP1 REVERT JUMPDEST PUSH1 0x20 DUP4 ADD SWAP2 POP DUP4 PUSH1 0x20 DUP3 PUSH1 0x5 SHL DUP6 ADD ADD GT ISZERO PUSH2 0x43C JUMPI PUSH1 0x0 DUP1 REVERT JUMPDEST SWAP3 POP SWAP3 SWAP1 POP JUMP JUMPDEST PUSH1 0x0 DUP1 PUSH1 0x20 DUP4 DUP6 SUB SLT ISZERO PUSH2 0x456 JUMPI PUSH1 0x0 DUP1 REVERT JUMPDEST DUP3 CALLDATALOAD PUSH8 0xFFFFFFFFFFFFFFFF DUP2 GT ISZERO PUSH2 0x46D JUMPI PUSH1 0x0 DUP1 REVERT JUMPDEST PUSH2 0x479 DUP6 DUP3 DUP7 ADD PUSH2 0x3F7 JUMP JUMPDEST SWAP1 SWAP7 SWAP1 SWAP6 POP SWAP4 POP POP POP POP JUMP JUMPDEST PUSH4 0x4E487B71 PUSH1 0xE0 SHL PUSH1 0x0 MSTORE PUSH1 0x41 PUSH1 0x4 MSTORE PUSH1 0x24 PUSH1 0x0 REVERT JUMPDEST PUSH1 0x0 DUP1 PUSH1 0x0 DUP1 PUSH1 0x60 DUP6 DUP8 SUB SLT ISZERO PUSH2 0x4B1 JUMPI PUSH1 0x0 DUP1 REVERT JUMPDEST DUP5 CALLDATALOAD SWAP4 POP PUSH1 0x20 DUP6 ADD CALLDATALOAD PUSH8 0xFFFFFFFFFFFFFFFF DUP1 DUP3 GT ISZERO PUSH2 0x4D0 JUMPI PUSH1 0x0 DUP1 REVERT JUMPDEST PUSH2 0x4DC DUP9 DUP4 DUP10 ADD PUSH2 0x3F7 JUMP JUMPDEST SWAP1 SWAP6 POP SWAP4 POP PUSH1 0x40 DUP8 ADD CALLDATALOAD SWAP2 POP DUP1 DUP3 GT ISZERO PUSH2 0x4F5 JUMPI PUSH1 0x0 DUP1 REVERT JUMPDEST DUP2 DUP8 ADD SWAP2 POP DUP8 PUSH1 0x1F DUP4 ADD SLT PUSH2 0x509 JUMPI PUSH1 0x0 DUP1 REVERT JUMPDEST DUP2 CALLDATALOAD DUP2 DUP2 GT ISZERO PUSH2 0x51B JUMPI PUSH2 0x51B PUSH2 0x485 JUMP JUMPDEST PUSH1 0x40 MLOAD PUSH1 0x1F DUP3 ADD PUSH1 0x1F NOT SWAP1 DUP2 AND PUSH1 0x3F ADD AND DUP2 ADD SWAP1 DUP4 DUP3 GT DUP2 DUP4 LT OR ISZERO PUSH2 0x543 JUMPI PUSH2 0x543 PUSH2 0x485 JUMP JUMPDEST DUP2 PUSH1 0x40 MSTORE DUP3 DUP2 MSTORE DUP11 PUSH1 0x20 DUP5 DUP8 ADD ADD GT ISZERO PUSH2 0x55C JUMPI PUSH1 0x0 DUP1 REVERT JUMPDEST DUP3 PUSH1 0x20 DUP7 ADD PUSH1 0x20 DUP4 ADD CALLDATACOPY PUSH1 0x0 PUSH1 0x20 DUP5 DUP4 ADD ADD MSTORE DUP1 SWAP6 POP POP POP POP POP POP SWAP3 SWAP6 SWAP2 SWAP5 POP SWAP3 POP JUMP JUMPDEST PUSH1 0x20 DUP1 DUP3 MSTORE PUSH1 0x9 SWAP1 DUP3 ADD MSTORE PUSH9 0x2737BA1037BBB732B9 PUSH1 0xB9 SHL PUSH1 0x40 DUP3 ADD MSTORE PUSH1 0x60 ADD SWAP1 JUMP JUMPDEST PUSH4 0x4E487B71 PUSH1 0xE0 SHL PUSH1 0x0 MSTORE PUSH1 0x32 PUSH1 0x4 MSTORE PUSH1 0x24 PUSH1 0x0 REVERT JUMPDEST PUSH1 0x0 PUSH1 0x1 DUP3 ADD PUSH2 0x5D9 JUMPI PUSH4 0x4E487B71 PUSH1 0xE0 SHL PUSH1 0x0 MSTORE PUSH1 0x11 PUSH1 0x4 MSTORE PUSH1 0x24 PUSH1 0x0 REVERT JUMPDEST POP PUSH1 0x1 ADD SWAP1 JUMP INVALID LOG2 PUSH5 0x6970667358 0x22 SLT KECCAK256 RETURNDATACOPY 0xAA SWAP7 PUSH1 0x19 0xD9 0xE SWAP14 0xD9 PUSH17 0xF858DFD787E73E74695256DAC179D84C5E SLT 0xEC PUSH16 0xFEE764736F6C63430008140033000000 "},"methodIdentifiers":{"attestationExists(bytes32)":"9fc0982f","batchRegisterAttestations(bytes32[])":"e41fd858","currentRound()":"8a19c8bc","getMerkleRoot(uint256)":"0aab8ba5","merkleRoots(uint256)":"71c5ecb1","owner()":"8da5cb5b","registerAttestation(bytes32)":"5a2d7f50","setMerkleRoot(uint256,bytes32)":"18712c21","validAttestations(bytes32)":"eceaf390","verifyAttestation(bytes32,bytes32[],bytes)":"ed0556fb"}}}}}