{
  "_format": "hh-sol-artifact-1",
  "contractName": "MockFDCVerifier",
  "sourceName": "contracts/MockFDCVerifier.sol",
  "abi": [
    {
      "inputs": [],
      "stateMutability": "nonpayable",
      "type": "constructor"
    },
    {
      "anonymous": false,
      "inputs": [
        {
          "indexed": true,
          "internalType": "bytes32",
          "name": "attestationId",
          "type": "bytes32"
        }
      ],
      "name": "AttestationRegistered",
      "type": "event"
    },
    {
      "anonymous": false,
      "inputs": [
        {
          "indexed": true,
          "internalType": "uint256",
          "name": "roundId",
          "type": "uint256"
        },
        {
          "indexed": false,
          "internalType": "bytes32",
          "name": "root",
          "type": "bytes32"
        }
      ],
      "name": "MerkleRootSet",
      "type": "event"
    },
    {
      "inputs": [
        {
          "internalType": "bytes32",
          "name": "attestationId",
          "type": "bytes32"
        }
      ],
      "name": "attestationExists",
      "outputs": [
        {
          "internalType": "bool",
          "name": "exists",
          "type": "bool"
        }
      ],
      "stateMutability": "view",
      "type": "function"
    },
    {
      "inputs": [
        {
          "internalType": "bytes32[]",
          "name": "attestationIds",
          "type": "bytes32[]"
        }
      ],
      "name": "batchRegisterAttestations",
      "outputs": [],
      "stateMutability": "nonpayable",
      "type": "function"
    },
    {
      "inputs": [],
      "name": "currentRound",
      "outputs": [
        {
          "internalType": "uint256",
          "name": "",
          "type": "uint256"
        }
      ],
      "stateMutability": "view",
      "type": "function"
    },
    {
      "inputs": [
        {
          "internalType": "uint256",
          "name": "roundId",
          "type": "uint256"
        }
      ],
      "name": "getMerkleRoot",
      "outputs": [
        {
          "internalType": "bytes32",
          "name": "root",
          "type": "bytes32"
        }
      ],
      "stateMutability": "view",
      "type": "function"
    },
    {
      "inputs": [
        {
          "internalType": "uint256",
          "name": "",
          "type": "uint256"
        }
      ],
      "name": "merkleRoots",
      "outputs": [
        {
          "internalType": "bytes32",
          "name": "",
          "type": "bytes32"
        }
      ],
      "stateMutability": "view",
      "type": "function"
    },
    {
      "inputs": [],
      "name": "owner",
      "outputs": [
        {
          "internalType": "address",
          "name": "",
          "type": "address"
        }
      ],
      "stateMutability": "view",
      "type": "function"
    },
    {
      "inputs": [
        {
          "internalType": "bytes32",
          "name": "attestationId",
          "type": "bytes32"
        }
      ],
      "name": "registerAttestation",
      "outputs": [],
      "stateMutability": "nonpayable",
      "type": "function"
    },
    {
      "inputs": [
        {
          "internalType": "uint256",
          "name": "roundId",
          "type": "uint256"
        },
        {
          "internalType": "bytes32",
          "name": "root",
          "type": "bytes32"
        }
      ],
      "name": "setMerkleRoot",
      "outputs": [],
      "stateMutability": "nonpayable",
      "type": "function"
    },
    {
      "inputs": [
        {
          "internalType": "bytes32",
          "name": "",
          "type": "bytes32"
        }
      ],
      "name": "validAttestations",
      "outputs": [
        {
          "internalType": "bool",
          "name": "",
          "type": "bool"
        }
      ],
      "stateMutability": "view",
      "type": "function"
    },
    {
      "inputs": [
        {
          "internalType": "bytes32",
          "name": "attestationId",
          "type": "bytes32"
        },
        {
          "internalType": "bytes32[]",
          "name": "merkleProof",
          "type": "bytes32[]"
        },
        {
          "internalType": "bytes",
          "name": "",
          "type": "bytes"
        }
      ],
      "name": "verifyAttestation",
      "outputs": [
        {
          "internalType": "bool",
          "name": "valid",
          "type": "bool"
        }
      ],
      "stateMutability": "view",
      "type": "function"
    }
  ],
  "bytecode": "0x608060405234801561001057600080fd5b50600080546001600160a01b031916331790556001600355610616806100376000396000f3fe608060405234801561001057600080fd5b506004361061009e5760003560e01c80638da5cb5b116100665780638da5cb5b146101275780639fc0982f14610152578063e41fd85814610185578063eceaf39014610198578063ed0556fb146101bb57600080fd5b80630aab8ba5146100a357806318712c21146100d65780635a2d7f50146100eb57806371c5ecb1146100fe5780638a19c8bc1461011e575b600080fd5b6100c36100b13660046103bc565b60009081526002602052604090205490565b6040519081526020015b60405180910390f35b6100e96100e43660046103d5565b6101ce565b005b6100e96100f93660046103bc565b610252565b6100c361010c3660046103bc565b60026020526000908152604090205481565b6100c360035481565b60005461013a906001600160a01b031681565b6040516001600160a01b0390911681526020016100cd565b6101756101603660046103bc565b60009081526001602052604090205460ff1690565b60405190151581526020016100cd565b6100e9610193366004610443565b6102c2565b6101756101a63660046103bc565b60016020526000908152604090205460ff1681565b6101756101c936600461049b565b610396565b6000546001600160a01b031633146102015760405162461bcd60e51b81526004016101f890610580565b60405180910390fd5b600082815260026020526040908190208290555182907fb04b7d6145a7588fdcf339a22877d5965f861c171204fc37688058c5f6c06d3b906102469084815260200190565b60405180910390a25050565b6000546001600160a01b0316331461027c5760405162461bcd60e51b81526004016101f890610580565b6000818152600160208190526040808320805460ff19169092179091555182917ffe10586889e06530420fe4a0d86aa4f7afc3c9dc84b0c77b731a9615496ef18a91a250565b6000546001600160a01b031633146102ec5760405162461bcd60e51b81526004016101f890610580565b60005b8181101561039157600180600085858581811061030e5761030e6105a3565b90506020020135815260200190815260200160002060006101000a81548160ff02191690831515021790555082828281811061034c5761034c6105a3565b905060200201357ffe10586889e06530420fe4a0d86aa4f7afc3c9dc84b0c77b731a9615496ef18a60405160405180910390a280610389816105b9565b9150506102ef565b505050565b60008481526001602052604081205460ff1680156103b357508215155b95945050505050565b6000602082840312156103ce57600080fd5b5035919050565b600080604083850312156103e857600080fd5b50508035926020909101359150565b60008083601f84011261040957600080fd5b50813567ffffffffffffffff81111561042157600080fd5b6020830191508360208260051b850101111561043c57600080fd5b9250929050565b6000806020838503121561045657600080fd5b823567ffffffffffffffff81111561046d57600080fd5b610479858286016103f7565b90969095509350505050565b634e487b7160e01b600052604160045260246000fd5b600080600080606085870312156104b157600080fd5b84359350602085013567ffffffffffffffff808211156104d057600080fd5b6104dc888389016103f7565b909550935060408701359150808211156104f557600080fd5b818701915087601f83011261050957600080fd5b81358181111561051b5761051b610485565b604051601f8201601f19908116603f0116810190838211818310171561054357610543610485565b816040528281528a602084870101111561055c57600080fd5b82602086016020830137600060208483010152809550505050505092959194509250565b6020808252600990820152682737ba1037bbb732b960b91b604082015260600190565b634e487b7160e01b600052603260045260246000fd5b6000600182016105d957634e487b7160e01b600052601160045260246000fd5b506001019056fea26469706673582212203eaa966019d90e9dd970f858dfd787e73e74695256dac179d84c5e12ec6ffee764736f6c63430008140033",
  "linkReferences": {},
  "deployedLinkReferences": {}
}